:020000020000FC
:1000000000C09FE59DBF94E09EBF0FE210E009B9DC
:1000100010BD08E10AB9A0E1B0E0C0E5D0E01AE007
:100020002AD030D024D0119621961150C9F71AD079
:10003000A0E2B0E0CAE5D0E015E01DD023D017D093
:10004000119621961150C9F70DD0A5E2B0E0CFE589
:10005000D0E010E110D016D00AD0119621961150A0
:10006000C9F7FFCF0AE003D00DE001D008955D9BF2
:10007000FECF0CB90895E199FECFAEBBBFBBE09AAD
:100080000DB30895E199FECFCEBBDFBB0DBBE29A65
:04009000E19A089554
:00000001FF
